{
  "hash": "40889c6b927a9e97b977e3837bfbc6d45a4c48e12ee45058f2181dc6b58c4921",
  "confirmations": 1,
  "height": 102,
  "version": 536870912,
  "versionHex": "20000000",
  "merkleroot": "d57ae63ac6b88fd7fb6e66c028cd968c1fe80234f80731cb16151e3b4a150b72",
  "time": 1681612587,
  "mediantime": 1681612531,
  "nonce": 0,
  "bits": "207fffff",
  "difficulty": 4.656542373906925e-10,
  "chainwork": "00000000000000000000000000000000000000000000000000000000000000ce",
  "nTx": 2,
  "previousblockhash": "3d5ce64d7bc81dcd73774a667f1c2b5eb1f4ae1ce3c70a8a37d65d56d6260ff4",
  "strippedsize": 328,
  "size": 473,
  "weight": 1457,
  "tx": [
    {
      "txid": "b3828d2e7c0f36ef887e1d841a5510463aad0a788f2b28514635f76b681fa97a",
      "hash": "42681fa1ac7308308c3866b50ee24ddb5c6381a5aeb1abca2dc2bedd7866b255",
      "version": 2,
      "size": 168,
      "vsize": 141,
      "weight": 564,
      "locktime": 0,
      "vin": [
        {
          "coinbase": "016600",
          "txinwitness": [
            "0000000000000000000000000000000000000000000000000000000000000000"
          ],
          "sequence": 4294967295
        }
      ],
      "vout": [
        {
          "value": 50.00000143,
          "n": 0,
          "scriptPubKey": {
            "asm": "0 901983891d4e12fff5eea296cf75a5b06ab967da",
            "desc": "addr(bcrt1qjqvc8zgafcf0la0w52tv7ad9kp4tje76a6vh32)#hgcpllvt",
            "hex": "0014901983891d4e12fff5eea296cf75a5b06ab967da",
            "address": "bcrt1qjqvc8zgafcf0la0w52tv7ad9kp4tje76a6vh32",
            "type": "witness_v0_keyhash"
          }
        },
        {
          "value": 0.00000000,
          "n": 1,
          "scriptPubKey": {
            "asm": "OP_RETURN aa21a9ed6d449a58d293918ec881abc2e12cfcf4501b84bdb13aeb1fb13bd45b084c303a",
            "desc": "raw(6a24aa21a9ed6d449a58d293918ec881abc2e12cfcf4501b84bdb13aeb1fb13bd45b084c303a)#e0zc5e6d",
            "hex": "6a24aa21a9ed6d449a58d293918ec881abc2e12cfcf4501b84bdb13aeb1fb13bd45b084c303a",
            "type": "nulldata"
          }
        }
      ],
      "hex": "020000000001010000000000000000000000000000000000000000000000000000000000000000ffffffff03016600ffffffff028ff2052a01000000160014901983891d4e12fff5eea296cf75a5b06ab967da0000000000000000266a24aa21a9ed6d449a58d293918ec881abc2e12cfcf4501b84bdb13aeb1fb13bd45b084c303a0120000000000000000000000000000000000000000000000000000000000000000000000000"
    },
    {
      "txid": "d98adfe86aea427033189316e32fc1793b9180a5ef0e74443057538877e926d0",
      "hash": "baa885e286d8795b29fc92124cbbf3c792b0ba99e206f92fd1dd412bb9fa21fa",
      "version": 2,
      "size": 224,
      "vsize": 143,
      "weight": 569,
      "locktime": 101,
      "vin": [
        {
          "txid": "fc5d2ec0b2c4b8778be9dabda068bfa038eae3cb238911bd7997e42fb16007fb",
          "vout": 0,
          "scriptSig": {
            "asm": "",
            "hex": ""
          },
          "txinwitness": [
            "3044022004a472765a2fc706c16559f3c3a4d4a6af1db7fb33e935b1c16007b85c5a180302200532d294d9ab3dc479647642e5f01363c0703094eff366af83f2116a648be3ca01",
            "03956bde5528d01f01bb612cffe399a5b95bab58f877caf2bc2f83885efc50f1fd"
          ],
          "sequence": 4294967293
        }
      ],
      "vout": [
        {
          "value": 48.99999857,
          "n": 0,
          "scriptPubKey": {
            "asm": "OP_HASH160 f1e61a119f50a76d4dcc4719de2408481d9cb687 OP_EQUAL",
            "desc": "addr(2NFJGVGebVo4gwpBppYW97Gj98CMmx1yfXt)#9gty3vhf",
            "hex": "a914f1e61a119f50a76d4dcc4719de2408481d9cb68787",
            "address": "2NFJGVGebVo4gwpBppYW97Gj98CMmx1yfXt",
            "type": "scripthash"
          }
        },
        {
          "value": 1.00000000,
          "n": 1,
          "scriptPubKey": {
            "asm": "OP_HASH160 e6cbcb755e33dd3e89ef908be13c60315f32c482 OP_EQUAL",
            "desc": "addr(2NEHZYK7V2EWxxu5y2KoPeDNV6LDLjozk7F)#mcuqghtk",
            "hex": "a914e6cbcb755e33dd3e89ef908be13c60315f32c48287",
            "address": "2NEHZYK7V2EWxxu5y2KoPeDNV6LDLjozk7F",
            "type": "scripthash"
          }
        }
      ],
      "fee": 0.00000143,
      "hex": "02000000000101fb0760b12fe49779bd118923cbe3ea38a0bf68a0bddae98b77b8c4b2c02e5dfc0000000000fdffffff02711010240100000017a914f1e61a119f50a76d4dcc4719de2408481d9cb6878700e1f5050000000017a914e6cbcb755e33dd3e89ef908be13c60315f32c4828702473044022004a472765a2fc706c16559f3c3a4d4a6af1db7fb33e935b1c16007b85c5a180302200532d294d9ab3dc479647642e5f01363c0703094eff366af83f2116a648be3ca012103956bde5528d01f01bb612cffe399a5b95bab58f877caf2bc2f83885efc50f1fd65000000"
    }
  ]
}
