{
  "hash": "325847484237bd22bda2ed41ab90219183ed17606f0899b7e80fbf66d954a221",
  "confirmations": 1,
  "height": 103,
  "version": 536870912,
  "versionHex": "20000000",
  "merkleroot": "e2bccb0f5ffb1954e1cd0c76654e7abda3d15fc3879d37f5620fc268ec4d3d6b",
  "time": 1681612588,
  "mediantime": 1681612532,
  "nonce": 0,
  "bits": "207fffff",
  "difficulty": 4.656542373906925e-10,
  "chainwork": "00000000000000000000000000000000000000000000000000000000000000d0",
  "nTx": 2,
  "previousblockhash": "40889c6b927a9e97b977e3837bfbc6d45a4c48e12ee45058f2181dc6b58c4921",
  "strippedsize": 495,
  "size": 531,
  "weight": 2016,
  "tx": [
    {
      "txid": "9f13ea7b279800494792ff0ab54733755ea202bba122fe75704e7c9ec7444bee",
      "hash": "12d629461867d1091ab60e8781716eb35c1fe57434e8ebec48611abc97a8d1c4",
      "version": 2,
      "size": 168,
      "vsize": 141,
      "weight": 564,
      "locktime": 0,
      "vin": [
        {
          "coinbase": "016700",
          "txinwitness": [
            "0000000000000000000000000000000000000000000000000000000000000000"
          ],
          "sequence": 4294967295
        }
      ],
      "vout": [
        {
          "value": 50.00001000,
          "n": 0,
          "scriptPubKey": {
            "asm": "0 bad8fb24857798ae558b47dfdcb873ca9372c620",
            "desc": "addr(bcrt1qhtv0kfy9w7v2u4vtgl0aewrne2fh933ql5shq5)#sdr2zj5e",
            "hex": "0014bad8fb24857798ae558b47dfdcb873ca9372c620",
            "address": "bcrt1qhtv0kfy9w7v2u4vtgl0aewrne2fh933ql5shq5",
            "type": "witness_v0_keyhash"
          }
        },
        {
          "value": 0.00000000,
          "n": 1,
          "scriptPubKey": {
            "asm": "OP_RETURN aa21a9ed569db8c30069319f51ee3cfa207ed9e810a91410702eef828e002477af90f279",
            "desc": "raw(6a24aa21a9ed569db8c30069319f51ee3cfa207ed9e810a91410702eef828e002477af90f279)#27p3c0sy",
            "hex": "6a24aa21a9ed569db8c30069319f51ee3cfa207ed9e810a91410702eef828e002477af90f279",
            "type": "nulldata"
          }
        }
      ],
      "hex": "020000000001010000000000000000000000000000000000000000000000000000000000000000ffffffff03016700ffffffff02e8f5052a01000000160014bad8fb24857798ae558b47dfdcb873ca9372c6200000000000000000266a24aa21a9ed569db8c30069319f51ee3cfa207ed9e810a91410702eef828e002477af90f2790120000000000000000000000000000000000000000000000000000000000000000000000000"
    },
    {
      "txid": "ba974e7814c2e8ebf16a2005e4f8211ab61488c04ab636a804cc4e7b5ccf441b",
      "hash": "ba974e7814c2e8ebf16a2005e4f8211ab61488c04ab636a804cc4e7b5ccf441b",
      "version": 1,
      "size": 282,
      "vsize": 282,
      "weight": 1128,
      "locktime": 0,
      "vin": [
        {
          "txid": "d98adfe86aea427033189316e32fc1793b9180a5ef0e74443057538877e926d0",
          "vout": 1,
          "scriptSig": {
            "asm": "3044022042138333e9055c2fe6a878ad32a140cb5b1da0ec1f74103194f0814203444fef02203b9cd56ffe9b03b7f3db43d7ee2cff7c10783eb309e2892035dc70f3591c6357[ALL] 03ee5e5f3ffd24df9e8b91739a89e004837b5a240d3ec787df2350a9886d5d73b8 107661134f21fc7c02223d50ab9eb3600bc3ffc3712423a1e47bb1f9a9dbf55f a8206c60f404f8167a38fc70eaf8aa17ac351023bef86bcb9d1086a19afe95bd53338876a9146765fc07965c793f0b5c6724648d5ca1f15f04a788ac",
            "hex": "473044022042138333e9055c2fe6a878ad32a140cb5b1da0ec1f74103194f0814203444fef02203b9cd56ffe9b03b7f3db43d7ee2cff7c10783eb309e2892035dc70f3591c6357012103ee5e5f3ffd24df9e8b91739a89e004837b5a240d3ec787df2350a9886d5d73b820107661134f21fc7c02223d50ab9eb3600bc3ffc3712423a1e47bb1f9a9dbf55f3ca8206c60f404f8167a38fc70eaf8aa17ac351023bef86bcb9d1086a19afe95bd53338876a9146765fc07965c793f0b5c6724648d5ca1f15f04a788ac"
          },
          "sequence": 4294967295
        }
      ],
      "vout": [
        {
          "value": 0.99999000,
          "n": 0,
          "scriptPubKey": {
            "asm": "0 6765fc07965c793f0b5c6724648d5ca1f15f04a7",
            "desc": "addr(bcrt1qvajlcpukt3un7z6uvujxfr2u58c47p98fk52vt)#fjvtcx49",
            "hex": "00146765fc07965c793f0b5c6724648d5ca1f15f04a7",
            "address": "bcrt1qvajlcpukt3un7z6uvujxfr2u58c47p98fk52vt",
            "type": "witness_v0_keyhash"
          }
        }
      ],
      "fee": 0.00001000,
      "hex": "0100000001d026e9778853573044740eefa580913b79c12fe3169318337042ea6ae8df8ad901000000c8473044022042138333e9055c2fe6a878ad32a140cb5b1da0ec1f74103194f0814203444fef02203b9cd56ffe9b03b7f3db43d7ee2cff7c10783eb309e2892035dc70f3591c6357012103ee5e5f3ffd24df9e8b91739a89e004837b5a240d3ec787df2350a9886d5d73b820107661134f21fc7c02223d50ab9eb3600bc3ffc3712423a1e47bb1f9a9dbf55f3ca8206c60f404f8167a38fc70eaf8aa17ac351023bef86bcb9d1086a19afe95bd53338876a9146765fc07965c793f0b5c6724648d5ca1f15f04a788acffffffff0118ddf505000000001600146765fc07965c793f0b5c6724648d5ca1f15f04a700000000"
    }
  ]
}
