{
  "hash": "4b275033f1a79060b6d421db1241bbc0c06eb423cabf958d3c94a1d3cd77d764",
  "confirmations": 1,
  "height": 103,
  "version": 536870912,
  "versionHex": "20000000",
  "merkleroot": "0513ebfae967ddad20ccdc6881c7f5e4d2d63b844311cbf4b316af770b91f024",
  "time": 1681612734,
  "mediantime": 1681612704,
  "nonce": 2,
  "bits": "207fffff",
  "difficulty": 4.656542373906925e-10,
  "chainwork": "00000000000000000000000000000000000000000000000000000000000000d0",
  "nTx": 2,
  "previousblockhash": "058dbba626554ecac09411d306a7dccad1f0451c6ed9fde44acd5717d1eddbeb",
  "strippedsize": 496,
  "size": 532,
  "weight": 2020,
  "tx": [
    {
      "txid": "004297d209b8d300b66b2962e0af4c370f2e91d78113dadbe5a1fc0abf47b25a",
      "hash": "a5a4ba711a24a98abc3ca628ae4089ccb28539ef343b725276c3cb8d090582c7",
      "version": 2,
      "size": 168,
      "vsize": 141,
      "weight": 564,
      "locktime": 0,
      "vin": [
        {
          "coinbase": "016700",
          "txinwitness": [
            "0000000000000000000000000000000000000000000000000000000000000000"
          ],
          "sequence": 4294967295
        }
      ],
      "vout": [
        {
          "value": 50.00001,
          "n": 0,
          "scriptPubKey": {
            "asm": "0 709a71ec3dd5c1f3adadc49081fad142faaa9ed8",
            "desc": "addr(bcrt1qwzd8rmpa6hql8tddcjggr7k3gta248kc6lf4vj)#ega4av30",
            "hex": "0014709a71ec3dd5c1f3adadc49081fad142faaa9ed8",
            "address": "bcrt1qwzd8rmpa6hql8tddcjggr7k3gta248kc6lf4vj",
            "type": "witness_v0_keyhash"
          }
        },
        {
          "value": 0.0,
          "n": 1,
          "scriptPubKey": {
            "asm": "OP_RETURN aa21a9ed9cb6a34babb0f4f3f5a16fbfc91a262c81f4fec26a364e372625d6f469e1b130",
            "desc": "raw(6a24aa21a9ed9cb6a34babb0f4f3f5a16fbfc91a262c81f4fec26a364e372625d6f469e1b130)#ew78h6mz",
            "hex": "6a24aa21a9ed9cb6a34babb0f4f3f5a16fbfc91a262c81f4fec26a364e372625d6f469e1b130",
            "type": "nulldata"
          }
        }
      ],
      "hex": "020000000001010000000000000000000000000000000000000000000000000000000000000000ffffffff03016700ffffffff02e8f5052a01000000160014709a71ec3dd5c1f3adadc49081fad142faaa9ed80000000000000000266a24aa21a9ed9cb6a34babb0f4f3f5a16fbfc91a262c81f4fec26a364e372625d6f469e1b1300120000000000000000000000000000000000000000000000000000000000000000000000000"
    },
    {
      "txid": "39eb6729a1553115925ba3a52b9ed8e2e738dc04105fdc87eebf4dc365cf084c",
      "hash": "39eb6729a1553115925ba3a52b9ed8e2e738dc04105fdc87eebf4dc365cf084c",
      "version": 1,
      "size": 283,
      "vsize": 283,
      "weight": 1132,
      "locktime": 0,
      "vin": [
        {
          "txid": "00b72c16bb8d38b22049d53f317ebbbc3a79063c4a9336c30545dfc4bea434bf",
          "vout": 1,
          "scriptSig": {
            "asm": "3045022100de697c9f7d8e3e5ed706f87e898ed6e31cab253d06b29bd889ec6d727c3a793102200095be833c9fa1280e3a2ae4423d0c69fde3684f72147e8dd9aba21f9948ac94[ALL] 0255f9e0fcd6c18c37167d323434d1483fa535d3ae7dc545766a71e42ec6adca2d 107661134f21fc7c02223d50ab9eb3600bc3ffc3712423a1e47bb1f9a9dbf55f a8206c60f404f8167a38fc70eaf8aa17ac351023bef86bcb9d1086a19afe95bd53338876a9148be5c2317d3bdcc9317ccc98d60351b7ab1277c988ac",
            "hex": "483045022100de697c9f7d8e3e5ed706f87e898ed6e31cab253d06b29bd889ec6d727c3a793102200095be833c9fa1280e3a2ae4423d0c69fde3684f72147e8dd9aba21f9948ac9401210255f9e0fcd6c18c37167d323434d1483fa535d3ae7dc545766a71e42ec6adca2d20107661134f21fc7c02223d50ab9eb3600bc3ffc3712423a1e47bb1f9a9dbf55f3ca8206c60f404f8167a38fc70eaf8aa17ac351023bef86bcb9d1086a19afe95bd53338876a9148be5c2317d3bdcc9317ccc98d60351b7ab1277c988ac"
          },
          "sequence": 4294967295
        }
      ],
      "vout": [
        {
          "value": 0.99999,
          "n": 0,
          "scriptPubKey": {
            "asm": "0 8be5c2317d3bdcc9317ccc98d60351b7ab1277c9",
            "desc": "addr(bcrt1q30juyvta80wvjvtuejvdvq63k743ya7f9rqtjy)#v2z83dwq",
            "hex": "00148be5c2317d3bdcc9317ccc98d60351b7ab1277c9",
            "address": "bcrt1q30juyvta80wvjvtuejvdvq63k743ya7f9rqtjy",
            "type": "witness_v0_keyhash"
          }
        }
      ],
      "fee": 0.00001,
      "hex": "0100000001bf34a4bec4df4505c336934a3c06793abcbb7e313fd54920b2388dbb162cb70001000000c9483045022100de697c9f7d8e3e5ed706f87e898ed6e31cab253d06b29bd889ec6d727c3a793102200095be833c9fa1280e3a2ae4423d0c69fde3684f72147e8dd9aba21f9948ac9401210255f9e0fcd6c18c37167d323434d1483fa535d3ae7dc545766a71e42ec6adca2d20107661134f21fc7c02223d50ab9eb3600bc3ffc3712423a1e47bb1f9a9dbf55f3ca8206c60f404f8167a38fc70eaf8aa17ac351023bef86bcb9d1086a19afe95bd53338876a9148be5c2317d3bdcc9317ccc98d60351b7ab1277c988acffffffff0118ddf505000000001600148be5c2317d3bdcc9317ccc98d60351b7ab1277c900000000"
    }
  ]
}
